:03000000020902F0
:0C090200787FE4F6D8FD758152020949A7
:03000300DFFE22FB
:10000E00AE07AF061EEF600C7FF51200037FF512F0
:05001E00000380EE224A
:100ADF004F4E210A004F4646210A00526563656951
:100AEF00766564210A0064697361626C6564210A2A
:0B0AFF0000656E61626C6564210A00F6
:100A81000B22C0F9A4B0999282F8809088034900A2
:100A9100002E014E00014F0001526E025000000174
:100AA1003900C104043A00000000043E00000000C7
:1005B800D290C202120BBB120B867F1412000E05DA
:1005C80052D3E552946474809480400AE4F5527FD3
:1005D80001120A4C8F21AC21E41203477BF67A28DA
:1005E80079A4784012011EE4FBFA797F784312025D
:1005F800278F418E408D3F8C3E7F667E667D267CB0
:1006080040AB41AA40A93FA83E1202C4602A402834
:100618007F667E667D267CC0AB41AA40A93FA83E86
:1006280012002D7B7F7A6A793C783E1202278F412F
:100638008E408D3F8C3E8009E4F541F540F53FF54D
:100648003EE4FFFE7DC87C42AB41AA40A93FA83EDC
:1006580012011EE4FBFAF9783F12002D12037B8E7B
:10066800428F43C3E5439404E5429400500A055180
:10067800E551701805508014D3E54394C2E54294BF
:10068800014004D2908005E4F550F551D3E551942A
:1006980030E55094754009D290C203E4F550F55105
:1006A80030014ED28CE4F54FC2027B32FAF9F8AF32
:1006B80048AE47AD46AC45120507AB38AA37A93650
:1006C800A835D31205A75029C28CC201B290E4F50F
:1006D80038F537F536F535F548F547F546F5457BF0
:1006E800FF2090067A0A79DF80047A0A79E4120BEF
:1006F8002E30044930B21220020F054FD3E54F9433
:10070800C8748094804002D20220B206200203E41A
:10071800F54F20B21C300219309016054FD3E54F23
:100728009404748094804009E4F54FC202D200C258
:100738009030B209300006D290C202C20012086B93
:0607480012098E0205C734
:0E0BBB00758901758CB8E4F58AD2AFD2A922F3
:03000B00020B0ADB
:100B0A00C0E0C0D0758CB8758A00E5482401F54864
:100B1A00E43547F547E43546F546E43545F545D02D
:040B2A00D0D0E03215
:100B8600759850438920758DFD858D8BD28ED2AF99
:030B9600D2AC22BC
:100B5100E4F50F8F99209914C3E50F9432748094B2
:0E0B6100805009050F7F0A12000380E9C29937
:010B6F002263
:100B2E008B0C8A0D890EAB0CAA0DA90E1203FCFFBD
:100B3E006010120B517401250EF50EE4350DF50DF6
:030B4E0080E4221E
:0300230002074E83
:10074E00C0E0C0F0C083C082C0D075D000C000C071
:10075E0001C002C003C004C005C006C00720980334
:10076E0002084BC29885994CE54C24D0F52D754E58
:10077E0000AF4EEF3395E0FEC3EF9405EE64809428
:10078E00805024AB49EF3395E0FEE54B2FF9E54A57
:10079E003EFA900001120415AA4AA94B8F828E834D
:1007AE00120442054E80CAAB49AA4AA94B900005D5
:1007BE00E52D120442E54C6473600302084B7BFF87
:1007CE007A0A79EA120B2EAF2F7E007C037DE81297
:1007DE000464AA06AB07AF2E7E007C277D101204A0
:1007EE0064EF2BFDEE3AFCE53075F064A42DFDE5CB
:1007FE00F03CFCE53175F00AA42DFFE5F03CFE7CE3
:10080E0000EF2532FFEC3EFEE48F388E37F536F5DD
:10081E0035D201F54EAF4EEF3395E0FEC3EF9406A1
:10082E00EE648094805016AB49AA4AA94BEF3395DB
:10083E00E08F82F583E4120442054E80D83099028F
:10084E00C299D007D006D005D004D003D002D00173
:0D085E00D000D0D0D082D083D0F0D0E032D6
:10098E002091607F0512000E2091587580FFB203F2
:10099E00C20220914EE53D2401F53DE4353CF53C87
:1009AE00E4353BF53BE4353AF53AE47F207E4EFDE7
:1009BE00FCAB3DAA3CA93BA83AD31205A740D3E411
:1009CE00F53DF53CF53BF53AB204C2007BFF200441
:1009DE00067A0A79F580047A0B7900120B2E209193
:1009EE00B180FB20B3127F0512000E20B30A758072
:0909FE00FFB290C20230B3FD22E9
:10086B00AE42AF437C007D0A1204768D34AE42AFAC
:10087B00437C007D641204767E007F0ACFCDCFCE01
:10088B00CCCE1204768F44AE42AF437C007D641213
:10089B0004768F397580FF30035CE54D14601914B5
:1008AB00602614603724037048C2A4D2A5D2A6D206
:1008BB00A7054D852C808039D2A4C2A5D2A6D2A77C
:1008CB00054D74222534800ED2A4D2A5C2A6D2A780
:1008DB00054D74222544F8E6F5808015D2A4D2A5E7
:1008EB00D2A6C2A7E4F54D74222539F8E6547FF55C
:0708FB00807F1912000322A7
:100B7000D2A000D2A10000000000C2A0000000002E
:060B800000C2A1000022EA
:100B9900C2A000D2A10000000000D2A00000000005
:010BA9002229
:100A0700E4FEEEC39408748094805020A806EF0893
:100A17008002C333D8FC30E704D2A08002C2A00012
:100A2700D2A10000000000C2A10E80D60000D2A013
:100A37000000D2A100000030A004C2058002D20548
:040A4700C2A1000048
:010A4B002288
:100AB200E4FFD2A0FEEEC394087480948050190023
:100AC200C2A10000000000D2A10000EF25E0FF302B
:0C0AD200A0010F00000E80DDC2A100009A
:010ADE0022F5
:100BAA00D2A0000000D2A10000000000C2A10000F3
:010BBA002218
:020A4C00AD07F4
:100A4E00120B707F90120A072005037F0022ED44DF
:100A5E0040FF120A072005037F0022120B707F91C0
:100A6E00120A072005037F0022120AB2120BAA12E5
:020A7E000B99D2
:010A80002253
:100026000203E7E86480F8E933E83360110460F01E
:10003600ED33EC337009E8FCE9FDEAFEEBFF220440
:1000460060DED3EB9FEA9EE99DE8C2E78CF0C2F73B
:1000560095F0400CE8CCF8E9CDF9EACEFAEBCFFB07
:100066001203B285D0F05804700320D5B3E80470AB
:10007600075002B2D50203F192D5EC0460F7E4CC46
:10008600C0E0C398F8603B94186008400DD0E0FBD0
:100096000203C9E4FBFAC9FC8028E830E406E4C997
:1000A600FBE4CAFCE830E305E4C9CACBFCE8540724
:1000B6006010F8C3E913F9EA13FAEB13FBEC13FC2F
:1000C600D8F130F52FC3E49CFCEF9BFFEE9AFEEDD2
:1000D60099FDD0E0FBEF4E4D4C701222DB0302037C
:1000E600EEEC2CFCEF33FFEE33FEED33FDED30E7A7
:1000F600EB0203C9EF2BFFEE3AFEED39FDD0E0FB34
:1001060050130BBB00030203F1ED13FDEE13FEEFDC
:0801160013FFEC13FC0203C906
:10011E00EC4D6011E8497017ED33EC3304600DE4DB
:10012E00FCFFFEFD22E933E8330470F80203E71208
:10013E0003B258046009E4CC248150062850090209
:10014E0003F12840030203EEC0E0EB4A7044B9808D
:10015E0006D0E0FB0203DDEF4E701CBD8008EBFF06
:10016E00EAFEE9FD80EBE98DF0A4FEE5F002020760
:10017E00E9CDF9EAFEEBFFEF89F0A4FCE5F0CE89BC
:10018E00F0A42EFFE435F0CD89F0A42DFEE435F079
:10019E008067EF4E7005BD80D780C3EF8BF0A4ACA7
:1001AE00F0EE8BF0A42CFCE435F0F8EF8AF0A42CE2
:1001BE00E5F038FCE433CB8DF0A42CFCE5F03BF8F5
:1001CE00EE8AF0A42CFCE5F038F8E433CF89F0A4E5
:1001DE002CFCE5F038CF3400CE89F0A42FFFE5F0EB
:1001EE003EFEE433C98DF0A42EFEE5F039CD8AF043
:1001FE00A42FFFE5F03EFEE43DFD33D0E0FB5007BB
:10020E000BBB000F0203F1EC2CFCEF33FFEE33FEC1
:06021E00ED33FD0203C9EF
:100224000203F1EC5D046005E8590470030203E77E
:100234001203B2580460F6EC4860F2EC7004FDFE60
:10024400FF22C860DB2481C85009C39860025006AD
:100254000203EE9850CAF582E9294B4A7005AB8235
:100264000203DD75F0007C1A7880C3EF9BEE9AEDF3
:1002740099400DC3EF9BFFEE9AFEED99FDE842F025
:10028400DC23ACF0D0E0FFD0E0FED0E0FDAB822078
:10029400E7101BEB60BAEC2CFCEF33FFEE33FEED02
:1002A40033FD0203C9E803F830E705C0F075F00038
:1002B400EF2FFFEE33FEED33FD40B830E7C280AAE6
:1002C40074F8CC6480CCC86480C8F58204604FC3E1
:1002D400EB9FF5F0EA9E42F0E99D42F0E89C45F080
:1002E400603C501DE5825FFFE582D313CB5BCBF40A
:1002F4002B5582FB50280ABA002409B90020088033
:100304001DE5825BFBE582D313CF5FCFF4C3132FCC
:100314005582FF50090EBE00050DBD00010CC3EB54
:100324009FF5F0EA9E42F0E99D42F0E89C45F060BA
:0903340007CC4820E701B3EC22DC
:10033D0075F020800E75F010800575F0087D007E3B
:10034D00007F003392D530D503120599EC33401060
:10035D00EF33FFEE33FEED33FDEC33FCD5F0ED2244
:0E036D00E5F0247EA2D513CC92E7CDCEFF2280
:10037B00EDD2E7CD33EC3392D524814006E4FFFE7A
:10038B00FDFC22FCE4CFCECDCC24E0501174FF80D9
:10039B00EDC3CC13CCCD13CDCE13CECF13CF047076
:0703AB00F030D5DE020599D8
:1003B200E9D2E7C933E833F892D5EDD2E7CD33EC91
:0703C20033FC5002B2D5220A
:1003C900EC30E7100FBF000C0EBE00080DBD000495
:1003D9000BEB6014A2D5EB13FCED92E7FD2274FF41
:1003E900FCFDFEFF22E480F8A2D574FF13FC7D809A
:0303F900E480EFAE
:10090E000205B8E493A3F8E493A34003F68001F242
:10091E0008DFF48029E493A3F85407240CC8C333EA
:10092E00C4540F4420C8834004F456800146F6DFB9
:10093E00E4800B0102040810204080900A81E47EBE
:10094E00019360BCA3FF543F30E509541FFEE493AE
:10095E00A360010ECF54C025E060A840B8E493A375
:10096E00FAE493A3F8E493A3C8C582C8CAC583CAA0
:10097E00F0A3C8C582C8CAC583CADFE9DEE780BE58
:010AB1000044
:1003FC00BB010689828A83E0225002E722BBFE02FF
:09040C00E32289828A83E4932231
:10041500BB010CE58229F582E5833AF583E022509C
:1004250006E92582F8E622BBFE06E92582F8E222E6
:0D043500E58229F582E5833AF583E4932200
:10044200F8BB010DE58229F582E5833AF583E8F0F0
:10045200225006E92582C8F622BBFE05E92582C89C
:02046200F22284
:10046400EF8DF0A4A8F0CF8CF0A428CE8DF0A42EAC
:02047400FE2266
:10047600BC000BBE0029EF8DF084FFADF022E4CC6A
:10048600F875F008EF2FFFEE33FEEC33FCEE9DEC33
:10049600984005FCEE9DFE0FD5F0E9E4CEFD22ED79
:1004A600F8F5F0EE8420D21CFEADF075F008EF2FC3
:1004B600FFED33FD4007985006D5F0F222C398FDB4
:0504C6000FD5F0EA2251
:1004CB0075F008758200EF2FFFEE33FECD33CDCCE8
:1004DB0033CCC58233C5829BED9AEC99E58298406B
:1004EB000CF582EE9BFEED9AFDEC99FC0FD5F0D648
:1004FB00E4CEFBE4CDFAE4CCF9A88222B800C1B972
:10050B000059BA002DEC8BF084CFCECDFCE5F0CBAF
:10051B00F97818EF2FFFEE33FEED33FDEC33FCEBE8
:10052B0033FB10D703994004EB99FB0FD8E5E4F9A3
:10053B00FA227818EF2FFFEE33FEED33FDEC33FC90
:10054B00C933C910D7059BE99A4007EC9BFCE99A84
:10055B00F90FD8E0E4C9FAE4CCFB2275F010EF2FC9
:10056B00FFEE33FEED33FDCC33CCC833C810D707C9
:10057B009BEC9AE899400AED9BFDEC9AFCE899F804
:0E058B000FD5F0DAE4CDFBE4CCFAE4C8F92297
:0E059900C3E49FFFE49EFEE49DFDE49CFC2273
:1005A700EB9FF5F0EA9E42F0E99D42F0E89C45F0AA
:0105B7002221
:00000001FF
